020210802010002001338388023111111113000000000000000000000000000000000000000039000000000000008190000000000000000000000000000000               000000000000000               000000000000000PES0000000100    0                          993456789012397                                                                                          
1     7308.10.00               0000000000002000000700000000001000000000000000000000000000002420000005                                                                                                                                                                                                  prueba                                  
1     7308.20.00               0000000000004000000700000000000500000000000000100000000000002299000005                                                                                                                                                                                                prueba 2                                  
